{
  "_format": "hh-sol-artifact-1",
  "contractName": "Trigger",
  "sourceName": "contracts/Trigger.sol",
  "abi": [
    {
      "inputs": [
        {
          "internalType": "address",
          "name": "_contract",
          "type": "address"
        }
      ],
      "name": "call",
      "outputs": [],
      "stateMutability": "nonpayable",
      "type": "function"
    }
  ],
  "bytecode": "0x608060405234801561001057600080fd5b5061039e806100206000396000f3fe608060405234801561001057600080fd5b506004361061002b5760003560e01c8063f55332ab14610030575b600080fd5b61004a6004803603810190610045919061023d565b61004c565b005b61008b6040518060400160405280600881526020017f416464726573733a000000000000000000000000000000000000000000000000815250826100ee565b8073ffffffffffffffffffffffffffffffffffffffff1663732b7a8d6040518163ffffffff1660e01b8152600401600060405180830381600087803b1580156100d357600080fd5b505af11580156100e7573d6000803e3d6000fd5b5050505050565b6101868282604051602401610104929190610309565b6040516020818303038152906040527f319af333000000000000000000000000000000000000000000000000000000007bffffffffffffffffffffffffffffffffffffffffffffffffffffffff19166020820180517bffffffffffffffffffffffffffffffffffffffffffffffffffffffff838183161783525050505061018a565b5050565b6101a1816101996101a46101c5565b63ffffffff16565b50565b60006a636f6e736f6c652e6c6f679050600080835160208501845afa505050565b6101d0819050919050565b6101d8610339565b565b600080fd5b600073ffffffffffffffffffffffffffffffffffffffff82169050919050565b600061020a826101df565b9050919050565b61021a816101ff565b811461022557600080fd5b50565b60008135905061023781610211565b92915050565b600060208284031215610253576102526101da565b5b600061026184828501610228565b91505092915050565b600081519050919050565b600082825260208201905092915050565b60005b838110156102a4578082015181840152602081019050610289565b60008484015250505050565b6000601f19601f8301169050919050565b60006102cc8261026a565b6102d68185610275565b93506102e6818560208601610286565b6102ef816102b0565b840191505092915050565b610303816101ff565b82525050565b6000604082019050818103600083015261032381856102c1565b905061033260208301846102fa565b9392505050565b7f4e487b7100000000000000000000000000000000000000000000000000000000600052605160045260246000fdfea264697066735822122009e4577b56c4a7d1e58f78a53b11425b12c3cc425ac5e07542d443749b9f6bbf64736f6c63430008180033",
  "linkReferences": {},
  "deployedLinkReferences": {}
}